{
    "_format": "hh-sol-artifact-1",
    "contractName": "NFTCollectible",
    "sourceName": "contracts/NFTCollectible.sol",
    "abi": [
        {
            "inputs": [
                {
                    "internalType": "string",
                    "name": "baseURI",
                    "type": "string"
                }
            ],
            "stateMutability": "nonpayable",
            "type": "constructor"
        },
        {
            "anonymous": false,
            "inputs": [
                {
                    "indexed": true,
                    "internalType": "address",
                    "name": "owner",
                    "type": "address"
                },
                {
                    "indexed": true,
                    "internalType": "address",
                    "name": "approved",
                    "type": "address"
                },
                {
                    "indexed": true,
                    "internalType": "uint256",
                    "name": "tokenId",
                    "type": "uint256"
                }
            ],
            "name": "Approval",
            "type": "event"
        },
        {
            "anonymous": false,
            "inputs": [
                {
                    "indexed": true,
                    "internalType": "address",
                    "name": "owner",
                    "type": "address"
                },
                {
                    "indexed": true,
                    "internalType": "address",
                    "name": "operator",
                    "type": "address"
                },
                {
                    "indexed": false,
                    "internalType": "bool",
                    "name": "approved",
                    "type": "bool"
                }
            ],
            "name": "ApprovalForAll",
            "type": "event"
        },
        {
            "anonymous": false,
            "inputs": [
                {
                    "indexed": true,
                    "internalType": "address",
                    "name": "previousOwner",
                    "type": "address"
                },
                {
                    "indexed": true,
                    "internalType": "address",
                    "name": "newOwner",
                    "type": "address"
                }
            ],
            "name": "OwnershipTransferred",
            "type": "event"
        },
        {
            "anonymous": false,
            "inputs": [
                {
                    "indexed": true,
                    "internalType": "address",
                    "name": "from",
                    "type": "address"
                },
                {
                    "indexed": true,
                    "internalType": "address",
                    "name": "to",
                    "type": "address"
                },
                {
                    "indexed": true,
                    "internalType": "uint256",
                    "name": "tokenId",
                    "type": "uint256"
                }
            ],
            "name": "Transfer",
            "type": "event"
        },
        {
            "inputs": [],
            "name": "MAX_PER_MINT",
            "outputs": [
                {
                    "internalType": "uint256",
                    "name": "",
                    "type": "uint256"
                }
            ],
            "stateMutability": "view",
            "type": "function"
        },
        {
            "inputs": [],
            "name": "MAX_SUPPLY",
            "outputs": [
                {
                    "internalType": "uint256",
                    "name": "",
                    "type": "uint256"
                }
            ],
            "stateMutability": "view",
            "type": "function"
        },
        {
            "inputs": [],
            "name": "PRICE",
            "outputs": [
                {
                    "internalType": "uint256",
                    "name": "",
                    "type": "uint256"
                }
            ],
            "stateMutability": "view",
            "type": "function"
        },
        {
            "inputs": [
                {
                    "internalType": "address",
                    "name": "to",
                    "type": "address"
                },
                {
                    "internalType": "uint256",
                    "name": "tokenId",
                    "type": "uint256"
                }
            ],
            "name": "approve",
            "outputs": [],
            "stateMutability": "nonpayable",
            "type": "function"
        },
        {
            "inputs": [
                {
                    "internalType": "address",
                    "name": "owner",
                    "type": "address"
                }
            ],
            "name": "balanceOf",
            "outputs": [
                {
                    "internalType": "uint256",
                    "name": "",
                    "type": "uint256"
                }
            ],
            "stateMutability": "view",
            "type": "function"
        },
        {
            "inputs": [],
            "name": "baseTokenURI",
            "outputs": [
                {
                    "internalType": "string",
                    "name": "",
                    "type": "string"
                }
            ],
            "stateMutability": "view",
            "type": "function"
        },
        {
            "inputs": [
                {
                    "internalType": "uint256",
                    "name": "tokenId",
                    "type": "uint256"
                }
            ],
            "name": "getApproved",
            "outputs": [
                {
                    "internalType": "address",
                    "name": "",
                    "type": "address"
                }
            ],
            "stateMutability": "view",
            "type": "function"
        },
        {
            "inputs": [
                {
                    "internalType": "address",
                    "name": "owner",
                    "type": "address"
                },
                {
                    "internalType": "address",
                    "name": "operator",
                    "type": "address"
                }
            ],
            "name": "isApprovedForAll",
            "outputs": [
                {
                    "internalType": "bool",
                    "name": "",
                    "type": "bool"
                }
            ],
            "stateMutability": "view",
            "type": "function"
        },
        {
            "inputs": [
                {
                    "internalType": "uint256",
                    "name": "_count",
                    "type": "uint256"
                }
            ],
            "name": "mintNFTs",
            "outputs": [],
            "stateMutability": "payable",
            "type": "function"
        },
        {
            "inputs": [],
            "name": "name",
            "outputs": [
                {
                    "internalType": "string",
                    "name": "",
                    "type": "string"
                }
            ],
            "stateMutability": "view",
            "type": "function"
        },
        {
            "inputs": [],
            "name": "owner",
            "outputs": [
                {
                    "internalType": "address",
                    "name": "",
                    "type": "address"
                }
            ],
            "stateMutability": "view",
            "type": "function"
        },
        {
            "inputs": [
                {
                    "internalType": "uint256",
                    "name": "tokenId",
                    "type": "uint256"
                }
            ],
            "name": "ownerOf",
            "outputs": [
                {
                    "internalType": "address",
                    "name": "",
                    "type": "address"
                }
            ],
            "stateMutability": "view",
            "type": "function"
        },
        {
            "inputs": [],
            "name": "renounceOwnership",
            "outputs": [],
            "stateMutability": "nonpayable",
            "type": "function"
        },
        {
            "inputs": [],
            "name": "reserveNFTs",
            "outputs": [],
            "stateMutability": "nonpayable",
            "type": "function"
        },
        {
            "inputs": [
                {
                    "internalType": "address",
                    "name": "from",
                    "type": "address"
                },
                {
                    "internalType": "address",
                    "name": "to",
                    "type": "address"
                },
                {
                    "internalType": "uint256",
                    "name": "tokenId",
                    "type": "uint256"
                }
            ],
            "name": "safeTransferFrom",
            "outputs": [],
            "stateMutability": "nonpayable",
            "type": "function"
        },
        {
            "inputs": [
                {
                    "internalType": "address",
                    "name": "from",
                    "type": "address"
                },
                {
                    "internalType": "address",
                    "name": "to",
                    "type": "address"
                },
                {
                    "internalType": "uint256",
                    "name": "tokenId",
                    "type": "uint256"
                },
                {
                    "internalType": "bytes",
                    "name": "_data",
                    "type": "bytes"
                }
            ],
            "name": "safeTransferFrom",
            "outputs": [],
            "stateMutability": "nonpayable",
            "type": "function"
        },
        {
            "inputs": [
                {
                    "internalType": "address",
                    "name": "operator",
                    "type": "address"
                },
                {
                    "internalType": "bool",
                    "name": "approved",
                    "type": "bool"
                }
            ],
            "name": "setApprovalForAll",
            "outputs": [],
            "stateMutability": "nonpayable",
            "type": "function"
        },
        {
            "inputs": [
                {
                    "internalType": "string",
                    "name": "_baseTokenURI",
                    "type": "string"
                }
            ],
            "name": "setBaseURI",
            "outputs": [],
            "stateMutability": "nonpayable",
            "type": "function"
        },
        {
            "inputs": [
                {
                    "internalType": "bytes4",
                    "name": "interfaceId",
                    "type": "bytes4"
                }
            ],
            "name": "supportsInterface",
            "outputs": [
                {
                    "internalType": "bool",
                    "name": "",
                    "type": "bool"
                }
            ],
            "stateMutability": "view",
            "type": "function"
        },
        {
            "inputs": [],
            "name": "symbol",
            "outputs": [
                {
                    "internalType": "string",
                    "name": "",
                    "type": "string"
                }
            ],
            "stateMutability": "view",
            "type": "function"
        },
        {
            "inputs": [
                {
                    "internalType": "uint256",
                    "name": "index",
                    "type": "uint256"
                }
            ],
            "name": "tokenByIndex",
            "outputs": [
                {
                    "internalType": "uint256",
                    "name": "",
                    "type": "uint256"
                }
            ],
            "stateMutability": "view",
            "type": "function"
        },
        {
            "inputs": [
                {
                    "internalType": "address",
                    "name": "owner",
                    "type": "address"
                },
                {
                    "internalType": "uint256",
                    "name": "index",
                    "type": "uint256"
                }
            ],
            "name": "tokenOfOwnerByIndex",
            "outputs": [
                {
                    "internalType": "uint256",
                    "name": "",
                    "type": "uint256"
                }
            ],
            "stateMutability": "view",
            "type": "function"
        },
        {
            "inputs": [
                {
                    "internalType": "uint256",
                    "name": "tokenId",
                    "type": "uint256"
                }
            ],
            "name": "tokenURI",
            "outputs": [
                {
                    "internalType": "string",
                    "name": "",
                    "type": "string"
                }
            ],
            "stateMutability": "view",
            "type": "function"
        },
        {
            "inputs": [
                {
                    "internalType": "address",
                    "name": "_owner",
                    "type": "address"
                }
            ],
            "name": "tokensOfOwner",
            "outputs": [
                {
                    "internalType": "uint256[]",
                    "name": "",
                    "type": "uint256[]"
                }
            ],
            "stateMutability": "view",
            "type": "function"
        },
        {
            "inputs": [],
            "name": "totalSupply",
            "outputs": [
                {
                    "internalType": "uint256",
                    "name": "",
                    "type": "uint256"
                }
            ],
            "stateMutability": "view",
            "type": "function"
        },
        {
            "inputs": [
                {
                    "internalType": "address",
                    "name": "from",
                    "type": "address"
                },
                {
                    "internalType": "address",
                    "name": "to",
                    "type": "address"
                },
                {
                    "internalType": "uint256",
                    "name": "tokenId",
                    "type": "uint256"
                }
            ],
            "name": "transferFrom",
            "outputs": [],
            "stateMutability": "nonpayable",
            "type": "function"
        },
        {
            "inputs": [
                {
                    "internalType": "address",
                    "name": "newOwner",
                    "type": "address"
                }
            ],
            "name": "transferOwnership",
            "outputs": [],
            "stateMutability": "nonpayable",
            "type": "function"
        },
        {
            "inputs": [],
            "name": "withdraw",
            "outputs": [],
            "stateMutability": "payable",
            "type": "function"
        }
    ],
    "bytecode": "0x60806040523480156200001157600080fd5b5060405162004861380380620048618339818101604052810190620000379190620003d4565b6040518060400160405280600f81526020017f4e465420436f6c6c65637469626c6500000000000000000000000000000000008152506040518060400160405280600481526020017f4e465443000000000000000000000000000000000000000000000000000000008152508160009080519060200190620000bb929190620002b2565b508060019080519060200190620000d4929190620002b2565b505050620000f7620000eb6200010f60201b60201c565b6200011760201b60201c565b6200010881620001dd60201b60201c565b506200060c565b600033905090565b6000600a60009054906101000a900473ffffffffffffffffffffffffffffffffffffffff16905081600a60006101000a81548173ffffffffffffffffffffffffffffffffffffffff021916908373ffffffffffffffffffffffffffffffffffffffff1602179055508173ffffffffffffffffffffffffffffffffffffffff168173ffffffffffffffffffffffffffffffffffffffff167f8be0079c531659141344cd1fd0a4f28419497f9722a3daafe3b4186f6b6457e060405160405180910390a35050565b620001ed6200010f60201b60201c565b73ffffffffffffffffffffffffffffffffffffffff16620002136200028860201b60201c565b73ffffffffffffffffffffffffffffffffffffffff16146200026c576040517f08c379a0000000000000000000000000000000000000000000000000000000008152600401620002639062000440565b60405180910390fd5b80600c908051906020019062000284929190620002b2565b5050565b6000600a60009054906101000a900473ffffffffffffffffffffffffffffffffffffffff16905090565b828054620002c09062000508565b90600052602060002090601f016020900481019282620002e4576000855562000330565b82601f10620002ff57805160ff191683800117855562000330565b8280016001018555821562000330579182015b828111156200032f57825182559160200191906001019062000312565b5b5090506200033f919062000343565b5090565b5b808211156200035e57600081600090555060010162000344565b5090565b60006200037962000373846200048b565b62000462565b9050828152602081018484840111156200039257600080fd5b6200039f848285620004d2565b509392505050565b600082601f830112620003b957600080fd5b8151620003cb84826020860162000362565b91505092915050565b600060208284031215620003e757600080fd5b600082015167ffffffffffffffff8111156200040257600080fd5b6200041084828501620003a7565b91505092915050565b600062000428602083620004c1565b91506200043582620005e3565b602082019050919050565b600060208201905081810360008301526200045b8162000419565b9050919050565b60006200046e62000481565b90506200047c82826200053e565b919050565b6000604051905090565b600067ffffffffffffffff821115620004a957620004a8620005a3565b5b620004b482620005d2565b9050602081019050919050565b600082825260208201905092915050565b60005b83811015620004f2578082015181840152602081019050620004d5565b8381111562000502576000848401525b50505050565b600060028204905060018216806200052157607f821691505b6020821081141562000538576200053762000574565b5b50919050565b6200054982620005d2565b810181811067ffffffffffffffff821117156200056b576200056a620005a3565b5b80604052505050565b7f4e487b7100000000000000000000000000000000000000000000000000000000600052602260045260246000fd5b7f4e487b7100000000000000000000000000000000000000000000000000000000600052604160045260246000fd5b6000601f19601f8301169050919050565b7f4f776e61626c653a2063616c6c6572206973206e6f7420746865206f776e6572600082015250565b614245806200061c6000396000f3fe6080604052600436106101b75760003560e01c806355f804b3116100ec57806395d89b411161008a578063c87b56dd11610064578063c87b56dd146105de578063d547cfb71461061b578063e985e9c514610646578063f2fde38b14610683576101b7565b806395d89b4114610561578063a22cb4651461058c578063b88d4fde146105b5576101b7565b8063715018a6116100c6578063715018a6146104b75780638462151c146104ce5780638d859f3e1461050b5780638da5cb5b14610536576101b7565b806355f804b3146104145780636352211e1461043d57806370a082311461047a576101b7565b806323b872dd116101595780633b4b1381116101335780633b4b1381146103885780633ccfd60b146103a457806342842e0e146103ae5780634f6ccce7146103d7576101b7565b806323b872dd146102f75780632f745c591461032057806332cb6b0c1461035d576101b7565b8063095ea7b311610195578063095ea7b31461026157806309d42b301461028a578063144100c7146102b557806318160ddd146102cc576101b7565b806301ffc9a7146101bc57806306fdde03146101f9578063081812fc14610224575b600080fd5b3480156101c857600080fd5b506101e360048036038101906101de9190612d5f565b6106ac565b6040516101f0919061339d565b60405180910390f35b34801561020557600080fd5b5061020e610726565b60405161021b91906133b8565b60405180910390f35b34801561023057600080fd5b5061024b60048036038101906102469190612df2565b6107b8565b6040516102589190613314565b60405180910390f35b34801561026d57600080fd5b5061028860048036038101906102839190612d23565b61083d565b005b34801561029657600080fd5b5061029f610955565b6040516102ac91906136da565b60405180910390f35b3480156102c157600080fd5b506102ca61095a565b005b3480156102d857600080fd5b506102e1610a65565b6040516102ee91906136da565b60405180910390f35b34801561030357600080fd5b5061031e60048036038101906103199190612c1d565b610a72565b005b34801561032c57600080fd5b5061034760048036038101906103429190612d23565b610ad2565b60405161035491906136da565b60405180910390f35b34801561036957600080fd5b50610372610b77565b60405161037f91906136da565b60405180910390f35b6103a2600480360381019061039d9190612df2565b610b7c565b005b6103ac610cb7565b005b3480156103ba57600080fd5b506103d560048036038101906103d09190612c1d565b610e2b565b005b3480156103e357600080fd5b506103fe60048036038101906103f99190612df2565b610e4b565b60405161040b91906136da565b60405180910390f35b34801561042057600080fd5b5061043b60048036038101906104369190612db1565b610ee2565b005b34801561044957600080fd5b50610464600480360381019061045f9190612df2565b610f78565b6040516104719190613314565b60405180910390f35b34801561048657600080fd5b506104a1600480360381019061049c9190612bb8565b61102a565b6040516104ae91906136da565b60405180910390f35b3480156104c357600080fd5b506104cc6110e2565b005b3480156104da57600080fd5b506104f560048036038101906104f09190612bb8565b61116a565b604051610502919061337b565b60405180910390f35b34801561051757600080fd5b50610520611264565b60405161052d91906136da565b60405180910390f35b34801561054257600080fd5b5061054b61126f565b6040516105589190613314565b60405180910390f35b34801561056d57600080fd5b50610576611299565b60405161058391906133b8565b60405180910390f35b34801561059857600080fd5b506105b360048036038101906105ae9190612ce7565b61132b565b005b3480156105c157600080fd5b506105dc60048036038101906105d79190612c6c565b611341565b005b3480156105ea57600080fd5b5061060560048036038101906106009190612df2565b6113a3565b60405161061291906133b8565b60405180910390f35b34801561062757600080fd5b5061063061144a565b60405161063d91906133b8565b60405180910390f35b34801561065257600080fd5b5061066d60048036038101906106689190612be1565b6114d8565b60405161067a919061339d565b60405180910390f35b34801561068f57600080fd5b506106aa60048036038101906106a59190612bb8565b61156c565b005b60007f780e9d63000000000000000000000000000000000000000000000000000000007bffffffffffffffffffffffffffffffffffffffffffffffffffffffff1916827bffffffffffffffffffffffffffffffffffffffffffffffffffffffff1916148061071f575061071e82611664565b5b9050919050565b606060008054610735906139ce565b80601f0160208091040260200160405190810160405280929190818152602001828054610761906139ce565b80156107ae5780601f10610783576101008083540402835291602001916107ae565b820191906000526020600020905b81548152906001019060200180831161079157829003601f168201915b5050505050905090565b60006107c382611746565b610802576040517f08c379a00000000000000000000000000000000000000000000000000000000081526004016107f9906135da565b60405180910390fd5b6004600083815260200190815260200160002060009054906101000a900473ffffffffffffffffffffffffffffffffffffffff169050919050565b600061084882610f78565b90508073ffffffffffffffffffffffffffffffffffffffff168373ffffffffffffffffffffffffffffffffffffffff1614156108b9576040517f08c379a00000000000000000000000000000000000000000000000000000000081526004016108b09061365a565b60405180910390fd5b8073ffffffffffffffffffffffffffffffffffffffff166108d86117b2565b73ffffffffffffffffffffffffffffffffffffffff1614806109075750610906816109016117b2565b6114d8565b5b610946576040517f08c379a000000000000000000000000000000000000000000000000000000000815260040161093d9061351a565b60405180910390fd5b61095083836117ba565b505050565b600581565b6109626117b2565b73ffffffffffffffffffffffffffffffffffffffff1661098061126f565b73ffffffffffffffffffffffffffffffffffffffff16146109d6576040517f08c379a00000000000000000000000000000000000000000000000000000000081526004016109cd906135fa565b60405180910390fd5b60006109e2600b611873565b905060646109fa600a8361188190919063ffffffff16565b10610a3a576040517f08c379a0000000000000000000000000000000000000000000000000000000008152600401610a319061357a565b60405180910390fd5b60005b600a811015610a6157610a4e611897565b8080610a5990613a31565b915050610a3d565b5050565b6000600880549050905090565b610a83610a7d6117b2565b826118bc565b610ac2576040517f08c379a0000000000000000000000000000000000000000000000000000000008152600401610ab99061369a565b60405180910390fd5b610acd83838361199a565b505050565b6000610add8361102a565b8210610b1e576040517f08c379a0000000000000000000000000000000000000000000000000000000008152600401610b15906133fa565b60405180910390fd5b600660008473ffffffffffffffffffffffffffffffffffffffff1673ffffffffffffffffffffffffffffffffffffffff168152602001908152602001600020600083815260200190815260200160002054905092915050565b606481565b6000610b88600b611873565b90506064610b9f838361188190919063ffffffff16565b1115610be0576040517f08c379a0000000000000000000000000000000000000000000000000000000008152600401610bd7906133da565b60405180910390fd5b600082118015610bf1575060058211155b610c30576040517f08c379a0000000000000000000000000000000000000000000000000000000008152600401610c27906134da565b60405180910390fd5b610c4a82662386f26fc10000611bf690919063ffffffff16565b341015610c8c576040517f08c379a0000000000000000000000000000000000000000000000000000000008152600401610c83906134ba565b60405180910390fd5b60005b82811015610cb257610c9f611897565b8080610caa90613a31565b915050610c8f565b505050565b610cbf6117b2565b73ffffffffffffffffffffffffffffffffffffffff16610cdd61126f565b73ffffffffffffffffffffffffffffffffffffffff1614610d33576040517f08c379a0000000000000000000000000000000000000000000000000000000008152600401610d2a906135fa565b60405180910390fd5b600047905060008111610d7b576040517f08c379a0000000000000000000000000000000000000000000000000000000008152600401610d72906135ba565b60405180910390fd5b60003373ffffffffffffffffffffffffffffffffffffffff1682604051610da1906132ff565b60006040518083038185875af1925050503d8060008114610dde576040519150601f19603f3d011682016040523d82523d6000602084013e610de3565b606091505b5050905080610e27576040517f08c379a0000000000000000000000000000000000000000000000000000000008152600401610e1e9061367a565b60405180910390fd5b5050565b610e4683838360405180602001604052806000815250611341565b505050565b6000610e55610a65565b8210610e96576040517f08c379a0000000000000000000000000000000000000000000000000000000008152600401610e8d906136ba565b60405180910390fd5b60088281548110610ed0577f4e487b7100000000000000000000000000000000000000000000000000000000600052603260045260246000fd5b90600052602060002001549050919050565b610eea6117b2565b73ffffffffffffffffffffffffffffffffffffffff16610f0861126f565b73ffffffffffffffffffffffffffffffffffffffff1614610f5e576040517f08c379a0000000000000000000000000000000000000000000000000000000008152600401610f55906135fa565b60405180910390fd5b80600c9080519060200190610f749291906129dc565b5050565b6000806002600084815260200190815260200160002060009054906101000a900473ffffffffffffffffffffffffffffffffffffffff169050600073ffffffffffffffffffffffffffffffffffffffff168173ffffffffffffffffffffffffffffffffffffffff161415611021576040517f08c379a00000000000000000000000000000000000000000000000000000000081526004016110189061355a565b60405180910390fd5b80915050919050565b60008073ffffffffffffffffffffffffffffffffffffffff168273ffffffffffffffffffffffffffffffffffffffff16141561109b576040517f08c379a00000000000000000000000000000000000000000000000000000000081526004016110929061353a565b60405180910390fd5b600360008373ffffffffffffffffffffffffffffffffffffffff1673ffffffffffffffffffffffffffffffffffffffff168152602001908152602001600020549050919050565b6110ea6117b2565b73ffffffffffffffffffffffffffffffffffffffff1661110861126f565b73ffffffffffffffffffffffffffffffffffffffff161461115e576040517f08c379a0000000000000000000000000000000000000000000000000000000008152600401611155906135fa565b60405180910390fd5b6111686000611c0c565b565b606060006111778361102a565b905060008167ffffffffffffffff8111156111bb577f4e487b7100000000000000000000000000000000000000000000000000000000600052604160045260246000fd5b6040519080825280602002602001820160405280156111e95781602001602082028036833780820191505090505b50905060005b82811015611259576112018582610ad2565b82828151811061123a577f4e487b7100000000000000000000000000000000000000000000000000000000600052603260045260246000fd5b602002602001018181525050808061125190613a31565b9150506111ef565b508092505050919050565b662386f26fc1000081565b6000600a60009054906101000a900473ffffffffffffffffffffffffffffffffffffffff16905090565b6060600180546112a8906139ce565b80601f01602080910402602001604051908101604052809291908181526020018280546112d4906139ce565b80156113215780601f106112f657610100808354040283529160200191611321565b820191906000526020600020905b81548152906001019060200180831161130457829003601f168201915b5050505050905090565b61133d6113366117b2565b8383611cd2565b5050565b61135261134c6117b2565b836118bc565b611391576040517f08c379a00000000000000000000000000000000000000000000000000000000081526004016113889061369a565b60405180910390fd5b61139d84848484611e3f565b50505050565b60606113ae82611746565b6113ed576040517f08c379a00000000000000000000000000000000000000000000000000000000081526004016113e49061363a565b60405180910390fd5b60006113f7611e9b565b905060008151116114175760405180602001604052806000815250611442565b8061142184611f2d565b6040516020016114329291906132db565b6040516020818303038152906040525b915050919050565b600c8054611457906139ce565b80601f0160208091040260200160405190810160405280929190818152602001828054611483906139ce565b80156114d05780601f106114a5576101008083540402835291602001916114d0565b820191906000526020600020905b8154815290600101906020018083116114b357829003601f168201915b505050505081565b6000600560008473ffffffffffffffffffffffffffffffffffffffff1673ffffffffffffffffffffffffffffffffffffffff16815260200190815260200160002060008373ffffffffffffffffffffffffffffffffffffffff1673ffffffffffffffffffffffffffffffffffffffff16815260200190815260200160002060009054906101000a900460ff16905092915050565b6115746117b2565b73ffffffffffffffffffffffffffffffffffffffff1661159261126f565b73ffffffffffffffffffffffffffffffffffffffff16146115e8576040517f08c379a00000000000000000000000000000000000000000000000000000000081526004016115df906135fa565b60405180910390fd5b600073ffffffffffffffffffffffffffffffffffffffff168173ffffffffffffffffffffffffffffffffffffffff161415611658576040517f08c379a000000000000000000000000000000000000000000000000000000000815260040161164f9061343a565b60405180910390fd5b61166181611c0c565b50565b60007f80ac58cd000000000000000000000000000000000000000000000000000000007bffffffffffffffffffffffffffffffffffffffffffffffffffffffff1916827bffffffffffffffffffffffffffffffffffffffffffffffffffffffff1916148061172f57507f5b5e139f000000000000000000000000000000000000000000000000000000007bffffffffffffffffffffffffffffffffffffffffffffffffffffffff1916827bffffffffffffffffffffffffffffffffffffffffffffffffffffffff1916145b8061173f575061173e826120da565b5b9050919050565b60008073ffffffffffffffffffffffffffffffffffffffff166002600084815260200190815260200160002060009054906101000a900473ffffffffffffffffffffffffffffffffffffffff1673ffffffffffffffffffffffffffffffffffffffff1614159050919050565b600033905090565b816004600083815260200190815260200160002060006101000a81548173ffffffffffffffffffffffffffffffffffffffff021916908373ffffffffffffffffffffffffffffffffffffffff160217905550808273ffffffffffffffffffffffffffffffffffffffff1661182d83610f78565b73ffffffffffffffffffffffffffffffffffffffff167f8c5be1e5ebec7d5bd14f71427d1e84f3dd0314c0f7b2291e5b200ac8c7c3b92560405160405180910390a45050565b600081600001549050919050565b6000818361188f9190613803565b905092915050565b60006118a3600b611873565b90506118af3382612144565b6118b9600b612162565b50565b60006118c782611746565b611906576040517f08c379a00000000000000000000000000000000000000000000000000000000081526004016118fd906134fa565b60405180910390fd5b600061191183610f78565b90508073ffffffffffffffffffffffffffffffffffffffff168473ffffffffffffffffffffffffffffffffffffffff16148061198057508373ffffffffffffffffffffffffffffffffffffffff16611968846107b8565b73ffffffffffffffffffffffffffffffffffffffff16145b80611991575061199081856114d8565b5b91505092915050565b8273ffffffffffffffffffffffffffffffffffffffff166119ba82610f78565b73ffffffffffffffffffffffffffffffffffffffff1614611a10576040517f08c379a0000000000000000000000000000000000000000000000000000000008152600401611a079061361a565b60405180910390fd5b600073ffffffffffffffffffffffffffffffffffffffff168273ffffffffffffffffffffffffffffffffffffffff161415611a80576040517f08c379a0000000000000000000000000000000000000000000000000000000008152600401611a779061347a565b60405180910390fd5b611a8b838383612178565b611a966000826117ba565b6001600360008573ffffffffffffffffffffffffffffffffffffffff1673ffffffffffffffffffffffffffffffffffffffff1681526020019081526020016000206000828254611ae691906138e4565b925050819055506001600360008473ffffffffffffffffffffffffffffffffffffffff1673ffffffffffffffffffffffffffffffffffffffff1681526020019081526020016000206000828254611b3d9190613803565b92505081905550816002600083815260200190815260200160002060006101000a81548173ffffffffffffffffffffffffffffffffffffffff021916908373ffffffffffffffffffffffffffffffffffffffff160217905550808273ffffffffffffffffffffffffffffffffffffffff168473ffffffffffffffffffffffffffffffffffffffff167fddf252ad1be2c89b69c2b068fc378daa952ba7f163c4a11628f55a4df523b3ef60405160405180910390a4505050565b60008183611c04919061388a565b905092915050565b6000600a60009054906101000a900473ffffffffffffffffffffffffffffffffffffffff16905081600a60006101000a81548173ffffffffffffffffffffffffffffffffffffffff021916908373ffffffffffffffffffffffffffffffffffffffff1602179055508173ffffffffffffffffffffffffffffffffffffffff168173ffffffffffffffffffffffffffffffffffffffff167f8be0079c531659141344cd1fd0a4f28419497f9722a3daafe3b4186f6b6457e060405160405180910390a35050565b8173ffffffffffffffffffffffffffffffffffffffff168373ffffffffffffffffffffffffffffffffffffffff161415611d41576040517f08c379a0000000000000000000000000000000000000000000000000000000008152600401611d389061349a565b60405180910390fd5b80600560008573ffffffffffffffffffffffffffffffffffffffff1673ffffffffffffffffffffffffffffffffffffffff16815260200190815260200160002060008473ffffffffffffffffffffffffffffffffffffffff1673ffffffffffffffffffffffffffffffffffffffff16815260200190815260200160002060006101000a81548160ff0219169083151502179055508173ffffffffffffffffffffffffffffffffffffffff168373ffffffffffffffffffffffffffffffffffffffff167f17307eab39ab6107e8899845ad3d59bd9653f200f220920489ca2b5937696c3183604051611e32919061339d565b60405180910390a3505050565b611e4a84848461199a565b611e568484848461228c565b611e95576040517f08c379a0000000000000000000000000000000000000000000000000000000008152600401611e8c9061341a565b60405180910390fd5b50505050565b6060600c8054611eaa906139ce565b80601f0160208091040260200160405190810160405280929190818152602001828054611ed6906139ce565b8015611f235780601f10611ef857610100808354040283529160200191611f23565b820191906000526020600020905b815481529060010190602001808311611f0657829003601f168201915b5050505050905090565b60606000821415611f75576040518060400160405280600181526020017f300000000000000000000000000000000000000000000000000000000000000081525090506120d5565b600082905060005b60008214611fa7578080611f9090613a31565b915050600a82611fa09190613859565b9150611f7d565b60008167ffffffffffffffff811115611fe9577f4e487b7100000000000000000000000000000000000000000000000000000000600052604160045260246000fd5b6040519080825280601f01601f19166020018201604052801561201b5781602001600182028036833780820191505090505b5090505b600085146120ce5760018261203491906138e4565b9150600a856120439190613a7a565b603061204f9190613803565b60f81b81838151811061208b577f4e487b7100000000000000000000000000000000000000000000000000000000600052603260045260246000fd5b60200101907effffffffffffffffffffffffffffffffffffffffffffffffffffffffffffff1916908160001a905350600a856120c79190613859565b945061201f565b8093505050505b919050565b60007f01ffc9a7000000000000000000000000000000000000000000000000000000007bffffffffffffffffffffffffffffffffffffffffffffffffffffffff1916827bffffffffffffffffffffffffffffffffffffffffffffffffffffffff1916149050919050565b61215e828260405180602001604052806000815250612423565b5050565b6001816000016000828254019250508190555050565b61218383838361247e565b600073ffffffffffffffffffffffffffffffffffffffff168373ffffffffffffffffffffffffffffffffffffffff1614156121c6576121c181612483565b612205565b8173ffffffffffffffffffffffffffffffffffffffff168373ffffffffffffffffffffffffffffffffffffffff16146122045761220383826124cc565b5b5b600073ffffffffffffffffffffffffffffffffffffffff168273ffffffffffffffffffffffffffffffffffffffff1614156122485761224381612639565b612287565b8273ffffffffffffffffffffffffffffffffffffffff168273ffffffffffffffffffffffffffffffffffffffff161461228657612285828261277c565b5b5b505050565b60006122ad8473ffffffffffffffffffffffffffffffffffffffff166127fb565b15612416578373ffffffffffffffffffffffffffffffffffffffff1663150b7a026122d66117b2565b8786866040518563ffffffff1660e01b81526004016122f8949392919061332f565b602060405180830381600087803b15801561231257600080fd5b505af192505050801561234357506040513d601f19601f820116820180604052508101906123409190612d88565b60015b6123c6573d8060008114612373576040519150601f19603f3d011682016040523d82523d6000602084013e612378565b606091505b506000815114156123be576040517f08c379a00000000000000000000000000000000000000000000000000000000081526004016123b59061341a565b60405180910390fd5b805181602001fd5b63150b7a0260e01b7bffffffffffffffffffffffffffffffffffffffffffffffffffffffff1916817bffffffffffffffffffffffffffffffffffffffffffffffffffffffff19161491505061241b565b600190505b949350505050565b61242d838361280e565b61243a600084848461228c565b612479576040517f08c379a00000000000000000000000000000000000000000000000000000000081526004016124709061341a565b60405180910390fd5b505050565b505050565b6008805490506009600083815260200190815260200160002081905550600881908060018154018082558091505060019003906000526020600020016000909190919091505550565b600060016124d98461102a565b6124e391906138e4565b90506000600760008481526020019081526020016000205490508181146125c8576000600660008673ffffffffffffffffffffffffffffffffffffffff1673ffffffffffffffffffffffffffffffffffffffff168152602001908152602001600020600084815260200190815260200160002054905080600660008773ffffffffffffffffffffffffffffffffffffffff1673ffffffffffffffffffffffffffffffffffffffff168152602001908152602001600020600084815260200190815260200160002081905550816007600083815260200190815260200160002081905550505b6007600084815260200190815260200160002060009055600660008573ffffffffffffffffffffffffffffffffffffffff1673ffffffffffffffffffffffffffffffffffffffff16815260200190815260200160002060008381526020019081526020016000206000905550505050565b6000600160088054905061264d91906138e4565b90506000600960008481526020019081526020016000205490506000600883815481106126a3577f4e487b7100000000000000000000000000000000000000000000000000000000600052603260045260246000fd5b9060005260206000200154905080600883815481106126eb577f4e487b7100000000000000000000000000000000000000000000000000000000600052603260045260246000fd5b906000526020600020018190555081600960008381526020019081526020016000208190555060096000858152602001908152602001600020600090556008805480612760577f4e487b7100000000000000000000000000000000000000000000000000000000600052603160045260246000fd5b6001900381819060005260206000200160009055905550505050565b60006127878361102a565b905081600660008573ffffffffffffffffffffffffffffffffffffffff1673ffffffffffffffffffffffffffffffffffffffff168152602001908152602001600020600083815260200190815260200160002081905550806007600084815260200190815260200160002081905550505050565b600080823b905060008111915050919050565b600073ffffffffffffffffffffffffffffffffffffffff168273ffffffffffffffffffffffffffffffffffffffff16141561287e576040517f08c379a00000000000000000000000000000000000000000000000000000000081526004016128759061359a565b60405180910390fd5b61288781611746565b156128c7576040517f08c379a00000000000000000000000000000000000000000000000000000000081526004016128be9061345a565b60405180910390fd5b6128d360008383612178565b6001600360008473ffffffffffffffffffffffffffffffffffffffff1673ffffffffffffffffffffffffffffffffffffffff16815260200190815260200160002060008282546129239190613803565b92505081905550816002600083815260200190815260200160002060006101000a81548173ffffffffffffffffffffffffffffffffffffffff021916908373ffffffffffffffffffffffffffffffffffffffff160217905550808273ffffffffffffffffffffffffffffffffffffffff16600073ffffffffffffffffffffffffffffffffffffffff167fddf252ad1be2c89b69c2b068fc378daa952ba7f163c4a11628f55a4df523b3ef60405160405180910390a45050565b8280546129e8906139ce565b90600052602060002090601f016020900481019282612a0a5760008555612a51565b82601f10612a2357805160ff1916838001178555612a51565b82800160010185558215612a51579182015b82811115612a50578251825591602001919060010190612a35565b5b509050612a5e9190612a62565b5090565b5b80821115612a7b576000816000905550600101612a63565b5090565b6000612a92612a8d8461371a565b6136f5565b905082815260208101848484011115612aaa57600080fd5b612ab584828561398c565b509392505050565b6000612ad0612acb8461374b565b6136f5565b905082815260208101848484011115612ae857600080fd5b612af384828561398c565b509392505050565b600081359050612b0a816141b3565b92915050565b600081359050612b1f816141ca565b92915050565b600081359050612b34816141e1565b92915050565b600081519050612b49816141e1565b92915050565b600082601f830112612b6057600080fd5b8135612b70848260208601612a7f565b91505092915050565b600082601f830112612b8a57600080fd5b8135612b9a848260208601612abd565b91505092915050565b600081359050612bb2816141f8565b92915050565b600060208284031215612bca57600080fd5b6000612bd884828501612afb565b91505092915050565b60008060408385031215612bf457600080fd5b6000612c0285828601612afb565b9250506020612c1385828601612afb565b9150509250929050565b600080600060608486031215612c3257600080fd5b6000612c4086828701612afb565b9350506020612c5186828701612afb565b9250506040612c6286828701612ba3565b9150509250925092565b60008060008060808587031215612c8257600080fd5b6000612c9087828801612afb565b9450506020612ca187828801612afb565b9350506040612cb287828801612ba3565b925050606085013567ffffffffffffffff811115612ccf57600080fd5b612cdb87828801612b4f565b91505092959194509250565b60008060408385031215612cfa57600080fd5b6000612d0885828601612afb565b9250506020612d1985828601612b10565b9150509250929050565b60008060408385031215612d3657600080fd5b6000612d4485828601612afb565b9250506020612d5585828601612ba3565b9150509250929050565b600060208284031215612d7157600080fd5b6000612d7f84828501612b25565b91505092915050565b600060208284031215612d9a57600080fd5b6000612da884828501612b3a565b91505092915050565b600060208284031215612dc357600080fd5b600082013567ffffffffffffffff811115612ddd57600080fd5b612de984828501612b79565b91505092915050565b600060208284031215612e0457600080fd5b6000612e1284828501612ba3565b91505092915050565b6000612e2783836132bd565b60208301905092915050565b612e3c81613918565b82525050565b6000612e4d8261378c565b612e5781856137ba565b9350612e628361377c565b8060005b83811015612e93578151612e7a8882612e1b565b9750612e85836137ad565b925050600181019050612e66565b5085935050505092915050565b612ea98161392a565b82525050565b6000612eba82613797565b612ec481856137cb565b9350612ed481856020860161399b565b612edd81613b67565b840191505092915050565b6000612ef3826137a2565b612efd81856137e7565b9350612f0d81856020860161399b565b612f1681613b67565b840191505092915050565b6000612f2c826137a2565b612f3681856137f8565b9350612f4681856020860161399b565b80840191505092915050565b6000612f5f6010836137e7565b9150612f6a82613b78565b602082019050919050565b6000612f82602b836137e7565b9150612f8d82613ba1565b604082019050919050565b6000612fa56032836137e7565b9150612fb082613bf0565b604082019050919050565b6000612fc86026836137e7565b9150612fd382613c3f565b604082019050919050565b6000612feb601c836137e7565b9150612ff682613c8e565b602082019050919050565b600061300e6024836137e7565b915061301982613cb7565b604082019050919050565b60006130316019836137e7565b915061303c82613d06565b602082019050919050565b60006130546022836137e7565b915061305f82613d2f565b604082019050919050565b60006130776025836137e7565b915061308282613d7e565b604082019050919050565b600061309a602c836137e7565b91506130a582613dcd565b604082019050919050565b60006130bd6038836137e7565b91506130c882613e1c565b604082019050919050565b60006130e0602a836137e7565b91506130eb82613e6b565b604082019050919050565b60006131036029836137e7565b915061310e82613eba565b604082019050919050565b6000613126600f836137e7565b915061313182613f09565b602082019050919050565b60006131496020836137e7565b915061315482613f32565b602082019050919050565b600061316c6019836137e7565b915061317782613f5b565b602082019050919050565b600061318f602c836137e7565b915061319a82613f84565b604082019050919050565b60006131b26020836137e7565b91506131bd82613fd3565b602082019050919050565b60006131d56029836137e7565b91506131e082613ffc565b604082019050919050565b60006131f8602f836137e7565b91506132038261404b565b604082019050919050565b600061321b6021836137e7565b91506132268261409a565b604082019050919050565b600061323e6000836137dc565b9150613249826140e9565b600082019050919050565b60006132616010836137e7565b915061326c826140ec565b602082019050919050565b60006132846031836137e7565b915061328f82614115565b604082019050919050565b60006132a7602c836137e7565b91506132b282614164565b604082019050919050565b6132c681613982565b82525050565b6132d581613982565b82525050565b60006132e78285612f21565b91506132f38284612f21565b91508190509392505050565b600061330a82613231565b9150819050919050565b60006020820190506133296000830184612e33565b92915050565b60006080820190506133446000830187612e33565b6133516020830186612e33565b61335e60408301856132cc565b81810360608301526133708184612eaf565b905095945050505050565b600060208201905081810360008301526133958184612e42565b905092915050565b60006020820190506133b26000830184612ea0565b92915050565b600060208201905081810360008301526133d28184612ee8565b905092915050565b600060208201905081810360008301526133f381612f52565b9050919050565b6000602082019050818103600083015261341381612f75565b9050919050565b6000602082019050818103600083015261343381612f98565b9050919050565b6000602082019050818103600083015261345381612fbb565b9050919050565b6000602082019050818103600083015261347381612fde565b9050919050565b6000602082019050818103600083015261349381613001565b9050919050565b600060208201905081810360008301526134b381613024565b9050919050565b600060208201905081810360008301526134d381613047565b9050919050565b600060208201905081810360008301526134f38161306a565b9050919050565b600060208201905081810360008301526135138161308d565b9050919050565b60006020820190508181036000830152613533816130b0565b9050919050565b60006020820190508181036000830152613553816130d3565b9050919050565b60006020820190508181036000830152613573816130f6565b9050919050565b6000602082019050818103600083015261359381613119565b9050919050565b600060208201905081810360008301526135b38161313c565b9050919050565b600060208201905081810360008301526135d38161315f565b9050919050565b600060208201905081810360008301526135f381613182565b9050919050565b60006020820190508181036000830152613613816131a5565b9050919050565b60006020820190508181036000830152613633816131c8565b9050919050565b60006020820190508181036000830152613653816131eb565b9050919050565b600060208201905081810360008301526136738161320e565b9050919050565b6000602082019050818103600083015261369381613254565b9050919050565b600060208201905081810360008301526136b381613277565b9050919050565b600060208201905081810360008301526136d38161329a565b9050919050565b60006020820190506136ef60008301846132cc565b92915050565b60006136ff613710565b905061370b8282613a00565b919050565b6000604051905090565b600067ffffffffffffffff82111561373557613734613b38565b5b61373e82613b67565b9050602081019050919050565b600067ffffffffffffffff82111561376657613765613b38565b5b61376f82613b67565b9050602081019050919050565b6000819050602082019050919050565b600081519050919050565b600081519050919050565b600081519050919050565b6000602082019050919050565b600082825260208201905092915050565b600082825260208201905092915050565b600081905092915050565b600082825260208201905092915050565b600081905092915050565b600061380e82613982565b915061381983613982565b9250827fffffffffffffffffffffffffffffffffffffffffffffffffffffffffffffffff0382111561384e5761384d613aab565b5b828201905092915050565b600061386482613982565b915061386f83613982565b92508261387f5761387e613ada565b5b828204905092915050565b600061389582613982565b91506138a083613982565b9250817fffffffffffffffffffffffffffffffffffffffffffffffffffffffffffffffff04831182151516156138d9576138d8613aab565b5b828202905092915050565b60006138ef82613982565b91506138fa83613982565b92508282101561390d5761390c613aab565b5b828203905092915050565b600061392382613962565b9050919050565b60008115159050919050565b60007fffffffff0000000000000000000000000000000000000000000000000000000082169050919050565b600073ffffffffffffffffffffffffffffffffffffffff82169050919050565b6000819050919050565b82818337600083830152505050565b60005b838110156139b957808201518184015260208101905061399e565b838111156139c8576000848401525b50505050565b600060028204905060018216806139e657607f821691505b602082108114156139fa576139f9613b09565b5b50919050565b613a0982613b67565b810181811067ffffffffffffffff82111715613a2857613a27613b38565b5b80604052505050565b6000613a3c82613982565b91507fffffffffffffffffffffffffffffffffffffffffffffffffffffffffffffffff821415613a6f57613a6e613aab565b5b600182019050919050565b6000613a8582613982565b9150613a9083613982565b925082613aa057613a9f613ada565b5b828206905092915050565b7f4e487b7100000000000000000000000000000000000000000000000000000000600052601160045260246000fd5b7f4e487b7100000000000000000000000000000000000000000000000000000000600052601260045260246000fd5b7f4e487b7100000000000000000000000000000000000000000000000000000000600052602260045260246000fd5b7f4e487b7100000000000000000000000000000000000000000000000000000000600052604160045260246000fd5b6000601f19601f8301169050919050565b7f4e6f7420656e6f756768204e4654732100000000000000000000000000000000600082015250565b7f455243373231456e756d657261626c653a206f776e657220696e646578206f7560008201527f74206f6620626f756e6473000000000000000000000000000000000000000000602082015250565b7f4552433732313a207472616e7366657220746f206e6f6e20455243373231526560008201527f63656976657220696d706c656d656e7465720000000000000000000000000000602082015250565b7f4f776e61626c653a206e6577206f776e657220697320746865207a65726f206160008201527f6464726573730000000000000000000000000000000000000000000000000000602082015250565b7f4552433732313a20746f6b656e20616c7265616479206d696e74656400000000600082015250565b7f4552433732313a207472616e7366657220746f20746865207a65726f2061646460008201527f7265737300000000000000000000000000000000000000000000000000000000602082015250565b7f4552433732313a20617070726f766520746f2063616c6c657200000000000000600082015250565b7f4e6f7420656e6f75676820657468657220746f207075726368617365204e465460008201527f732e000000000000000000000000000000000000000000000000000000000000602082015250565b7f43616e6e6f74206d696e7420737065636966696564206e756d626572206f662060008201527f4e4654732e000000000000000000000000000000000000000000000000000000602082015250565b7f4552433732313a206f70657261746f7220717565727920666f72206e6f6e657860008201527f697374656e7420746f6b656e0000000000000000000000000000000000000000602082015250565b7f4552433732313a20617070726f76652063616c6c6572206973206e6f74206f7760008201527f6e6572206e6f7220617070726f76656420666f7220616c6c0000000000000000602082015250565b7f4552433732313a2062616c616e636520717565727920666f7220746865207a6560008201527f726f206164647265737300000000000000000000000000000000000000000000602082015250565b7f4552433732313a206f776e657220717565727920666f72206e6f6e657869737460008201527f656e7420746f6b656e0000000000000000000000000000000000000000000000602082015250565b7f4e6f7420656e6f756768204e4654730000000000000000000000000000000000600082015250565b7f4552433732313a206d696e7420746f20746865207a65726f2061646472657373600082015250565b7f4e6f206574686572206c65667420746f20776974686472617700000000000000600082015250565b7f4552433732313a20617070726f76656420717565727920666f72206e6f6e657860008201527f697374656e7420746f6b656e0000000000000000000000000000000000000000602082015250565b7f4f776e61626c653a2063616c6c6572206973206e6f7420746865206f776e6572600082015250565b7f4552433732313a207472616e73666572206f6620746f6b656e2074686174206960008201527f73206e6f74206f776e0000000000000000000000000000000000000000000000602082015250565b7f4552433732314d657461646174613a2055524920717565727920666f72206e6f60008201527f6e6578697374656e7420746f6b656e0000000000000000000000000000000000602082015250565b7f4552433732313a20617070726f76616c20746f2063757272656e74206f776e6560008201527f7200000000000000000000000000000000000000000000000000000000000000602082015250565b50565b7f5472616e73666572206661696c65642e00000000000000000000000000000000600082015250565b7f4552433732313a207472616e736665722063616c6c6572206973206e6f74206f60008201527f776e6572206e6f7220617070726f766564000000000000000000000000000000602082015250565b7f455243373231456e756d657261626c653a20676c6f62616c20696e646578206f60008201527f7574206f6620626f756e64730000000000000000000000000000000000000000602082015250565b6141bc81613918565b81146141c757600080fd5b50565b6141d38161392a565b81146141de57600080fd5b50565b6141ea81613936565b81146141f557600080fd5b50565b61420181613982565b811461420c57600080fd5b5056fea264697066735822122019e075d503f35bc6cd242be89d2478f4f27cbade75e8a79dfeba8337aafb66be64736f6c63430008040033",
    "linkReferences": {},
    "deployedLinkReferences": {}
}